{
  "contractName": "AddPatientRecord",
  "abi": [
    {
      "anonymous": false,
      "inputs": [
        {
          "indexed": true,
          "internalType": "uint256",
          "name": "recordId",
          "type": "uint256"
        },
        {
          "indexed": false,
          "internalType": "string",
          "name": "fullName",
          "type": "string"
        }
      ],
      "name": "RecordAdded",
      "type": "event"
    },
    {
      "inputs": [],
      "name": "recordCount",
      "outputs": [
        {
          "internalType": "uint256",
          "name": "",
          "type": "uint256"
        }
      ],
      "stateMutability": "view",
      "type": "function"
    },
    {
      "inputs": [
        {
          "internalType": "address",
          "name": "",
          "type": "address"
        }
      ],
      "name": "records",
      "outputs": [
        {
          "internalType": "string",
          "name": "fullName",
          "type": "string"
        },
        {
          "internalType": "string",
          "name": "dateOfBirth",
          "type": "string"
        },
        {
          "internalType": "string",
          "name": "hometown",
          "type": "string"
        },
        {
          "internalType": "string",
          "name": "occupation",
          "type": "string"
        },
        {
          "internalType": "string",
          "name": "cccd",
          "type": "string"
        },
        {
          "internalType": "string",
          "name": "healthInsuranceNumber",
          "type": "string"
        },
        {
          "internalType": "string",
          "name": "admissionDateTime",
          "type": "string"
        },
        {
          "internalType": "string",
          "name": "diagnosis",
          "type": "string"
        },
        {
          "internalType": "string",
          "name": "medicalHistory",
          "type": "string"
        },
        {
          "internalType": "string",
          "name": "conclusion",
          "type": "string"
        }
      ],
      "stateMutability": "view",
      "type": "function"
    },
    {
      "inputs": [
        {
          "internalType": "string",
          "name": "_fullName",
          "type": "string"
        },
        {
          "internalType": "string",
          "name": "_dateOfBirth",
          "type": "string"
        },
        {
          "internalType": "string",
          "name": "_hometown",
          "type": "string"
        },
        {
          "internalType": "string",
          "name": "_occupation",
          "type": "string"
        },
        {
          "internalType": "string",
          "name": "_cccd",
          "type": "string"
        },
        {
          "internalType": "string",
          "name": "_healthInsuranceNumber",
          "type": "string"
        },
        {
          "internalType": "string",
          "name": "_admissionDateTime",
          "type": "string"
        },
        {
          "internalType": "string[]",
          "name": "_mriOrXrayCIDs",
          "type": "string[]"
        },
        {
          "internalType": "string",
          "name": "_diagnosis",
          "type": "string"
        },
        {
          "internalType": "string",
          "name": "_medicalHistory",
          "type": "string"
        },
        {
          "internalType": "string",
          "name": "_conclusion",
          "type": "string"
        }
      ],
      "name": "addRecord",
      "outputs": [],
      "stateMutability": "nonpayable",
      "type": "function"
    },
    {
      "inputs": [
        {
          "internalType": "address",
          "name": "_recordOwner",
          "type": "address"
        }
      ],
      "name": "getRecord",
      "outputs": [
        {
          "internalType": "string",
          "name": "fullName",
          "type": "string"
        },
        {
          "internalType": "string",
          "name": "dateOfBirth",
          "type": "string"
        },
        {
          "internalType": "string",
          "name": "hometown",
          "type": "string"
        },
        {
          "internalType": "string",
          "name": "occupation",
          "type": "string"
        },
        {
          "internalType": "string",
          "name": "cccd",
          "type": "string"
        },
        {
          "internalType": "string",
          "name": "healthInsuranceNumber",
          "type": "string"
        },
        {
          "internalType": "string",
          "name": "admissionDateTime",
          "type": "string"
        },
        {
          "internalType": "string[]",
          "name": "mriOrXrayCIDs",
          "type": "string[]"
        },
        {
          "internalType": "string",
          "name": "diagnosis",
          "type": "string"
        },
        {
          "internalType": "string",
          "name": "medicalHistory",
          "type": "string"
        },
        {
          "internalType": "string",
          "name": "conclusion",
          "type": "string"
        }
      ],
      "stateMutability": "view",
      "type": "function"
    },
    {
      "inputs": [],
      "name": "getRecordCount",
      "outputs": [
        {
          "internalType": "uint256",
          "name": "",
          "type": "uint256"
        }
      ],
      "stateMutability": "view",
      "type": "function"
    }
  ],
  "bytecode": "0x6080604052600060015534801561001557600080fd5b5061176d806100256000396000f3fe608060405234801561001057600080fd5b50600436106100575760003560e01c8063469e90671461005c578063617fba041461008e578063900407bc146100b8578063bd2e3ae9146100cf578063ca267f28146100e4575b600080fd5b61006f61006a36600461121e565b6100ec565b6040516100859a999897969594939291906115b1565b60405180910390f35b6100a161009c36600461121e565b610688565b6040516100859b9a999897969594939291906114c0565b6100c160015481565b604051908152602001610085565b6100e26100dd36600461124e565b610dba565b005b6001546100c1565b600060208190529081526040902080548190610107906116bd565b80601f0160208091040260200160405190810160405280929190818152602001828054610133906116bd565b80156101805780601f1061015557610100808354040283529160200191610180565b820191906000526020600020905b81548152906001019060200180831161016357829003601f168201915b505050505090806001018054610195906116bd565b80601f01602080910402602001604051908101604052809291908181526020018280546101c1906116bd565b801561020e5780601f106101e35761010080835404028352916020019161020e565b820191906000526020600020905b8154815290600101906020018083116101f157829003601f168201915b505050505090806002018054610223906116bd565b80601f016020809104026020016040519081016040528092919081815260200182805461024f906116bd565b801561029c5780601f106102715761010080835404028352916020019161029c565b820191906000526020600020905b81548152906001019060200180831161027f57829003601f168201915b5050505050908060030180546102b1906116bd565b80601f01602080910402602001604051908101604052809291908181526020018280546102dd906116bd565b801561032a5780601f106102ff5761010080835404028352916020019161032a565b820191906000526020600020905b81548152906001019060200180831161030d57829003601f168201915b50505050509080600401805461033f906116bd565b80601f016020809104026020016040519081016040528092919081815260200182805461036b906116bd565b80156103b85780601f1061038d576101008083540402835291602001916103b8565b820191906000526020600020905b81548152906001019060200180831161039b57829003601f168201915b5050505050908060050180546103cd906116bd565b80601f01602080910402602001604051908101604052809291908181526020018280546103f9906116bd565b80156104465780601f1061041b57610100808354040283529160200191610446565b820191906000526020600020905b81548152906001019060200180831161042957829003601f168201915b50505050509080600601805461045b906116bd565b80601f0160208091040260200160405190810160405280929190818152602001828054610487906116bd565b80156104d45780601f106104a9576101008083540402835291602001916104d4565b820191906000526020600020905b8154815290600101906020018083116104b757829003601f168201915b5050505050908060080180546104e9906116bd565b80601f0160208091040260200160405190810160405280929190818152602001828054610515906116bd565b80156105625780601f1061053757610100808354040283529160200191610562565b820191906000526020600020905b81548152906001019060200180831161054557829003601f168201915b505050505090806009018054610577906116bd565b80601f01602080910402602001604051908101604052809291908181526020018280546105a3906116bd565b80156105f05780601f106105c5576101008083540402835291602001916105f0565b820191906000526020600020905b8154815290600101906020018083116105d357829003601f168201915b50505050509080600a018054610605906116bd565b80601f0160208091040260200160405190810160405280929190818152602001828054610631906116bd565b801561067e5780601f106106535761010080835404028352916020019161067e565b820191906000526020600020905b81548152906001019060200180831161066157829003601f168201915b505050505090508a565b606080606080606080606080606080606060008060008e6001600160a01b03166001600160a01b03168152602001908152602001600020604051806101600160405290816000820180546106db906116bd565b80601f0160208091040260200160405190810160405280929190818152602001828054610707906116bd565b80156107545780601f1061072957610100808354040283529160200191610754565b820191906000526020600020905b81548152906001019060200180831161073757829003601f168201915b5050505050815260200160018201805461076d906116bd565b80601f0160208091040260200160405190810160405280929190818152602001828054610799906116bd565b80156107e65780601f106107bb576101008083540402835291602001916107e6565b820191906000526020600020905b8154815290600101906020018083116107c957829003601f168201915b505050505081526020016002820180546107ff906116bd565b80601f016020809104026020016040519081016040528092919081815260200182805461082b906116bd565b80156108785780601f1061084d57610100808354040283529160200191610878565b820191906000526020600020905b81548152906001019060200180831161085b57829003601f168201915b50505050508152602001600382018054610891906116bd565b80601f01602080910402602001604051908101604052809291908181526020018280546108bd906116bd565b801561090a5780601f106108df5761010080835404028352916020019161090a565b820191906000526020600020905b8154815290600101906020018083116108ed57829003601f168201915b50505050508152602001600482018054610923906116bd565b80601f016020809104026020016040519081016040528092919081815260200182805461094f906116bd565b801561099c5780601f106109715761010080835404028352916020019161099c565b820191906000526020600020905b81548152906001019060200180831161097f57829003601f168201915b505050505081526020016005820180546109b5906116bd565b80601f01602080910402602001604051908101604052809291908181526020018280546109e1906116bd565b8015610a2e5780601f10610a0357610100808354040283529160200191610a2e565b820191906000526020600020905b815481529060010190602001808311610a1157829003601f168201915b50505050508152602001600682018054610a47906116bd565b80601f0160208091040260200160405190810160405280929190818152602001828054610a73906116bd565b8015610ac05780601f10610a9557610100808354040283529160200191610ac0565b820191906000526020600020905b815481529060010190602001808311610aa357829003601f168201915b5050505050815260200160078201805480602002602001604051908101604052809291908181526020016000905b82821015610b9a578382906000526020600020018054610b0d906116bd565b80601f0160208091040260200160405190810160405280929190818152602001828054610b39906116bd565b8015610b865780601f10610b5b57610100808354040283529160200191610b86565b820191906000526020600020905b815481529060010190602001808311610b6957829003601f168201915b505050505081526020019060010190610aee565b505050508152602001600882018054610bb2906116bd565b80601f0160208091040260200160405190810160405280929190818152602001828054610bde906116bd565b8015610c2b5780601f10610c0057610100808354040283529160200191610c2b565b820191906000526020600020905b815481529060010190602001808311610c0e57829003601f168201915b50505050508152602001600982018054610c44906116bd565b80601f0160208091040260200160405190810160405280929190818152602001828054610c70906116bd565b8015610cbd5780601f10610c9257610100808354040283529160200191610cbd565b820191906000526020600020905b815481529060010190602001808311610ca057829003601f168201915b50505050508152602001600a82018054610cd6906116bd565b80601f0160208091040260200160405190810160405280929190818152602001828054610d02906116bd565b8015610d4f5780601f10610d2457610100808354040283529160200191610d4f565b820191906000526020600020905b815481529060010190602001808311610d3257829003601f168201915b5050505050815250509050806000015181602001518260400151836060015184608001518560a001518660c001518760e001518861010001518961012001518a61014001519b509b509b509b509b509b509b509b509b509b509b505091939597999b90929496989a50565b6040518061016001604052808c81526020018b81526020018a815260200189815260200188815260200187815260200186815260200185815260200184815260200183815260200182815250600080336001600160a01b03166001600160a01b031681526020019081526020016000206000820151816000019080519060200190610e46929190610fbe565b506020828101518051610e5f9260018501920190610fbe565b5060408201518051610e7b916002840191602090910190610fbe565b5060608201518051610e97916003840191602090910190610fbe565b5060808201518051610eb3916004840191602090910190610fbe565b5060a08201518051610ecf916005840191602090910190610fbe565b5060c08201518051610eeb916006840191602090910190610fbe565b5060e08201518051610f07916007840191602090910190611042565b506101008201518051610f24916008840191602090910190610fbe565b506101208201518051610f41916009840191602090910190610fbe565b506101408201518051610f5e91600a840191602090910190610fbe565b509050506001547fc27ea2523693cc75e5b7f14a03cdd9496145ca13c087afe6dcd707770af065f48c604051610f9491906114ad565b60405180910390a260018054906000610fac836116f8565b91905055505050505050505050505050565b828054610fca906116bd565b90600052602060002090601f016020900481019282610fec5760008555611032565b82601f1061100557805160ff1916838001178555611032565b82800160010185558215611032579182015b82811115611032578251825591602001919060010190611017565b5061103e92915061109b565b5090565b82805482825590600052602060002090810192821561108f579160200282015b8281111561108f578251805161107f918491602090910190610fbe565b5091602001919060010190611062565b5061103e9291506110b0565b5b8082111561103e576000815560010161109c565b8082111561103e5760006110c482826110cd565b506001016110b0565b5080546110d9906116bd565b6000825580601f106110e9575050565b601f016020900490600052602060002090810190611107919061109b565b50565b600082601f83011261111b57600080fd5b8135602067ffffffffffffffff8083111561113857611138611721565b8260051b61114783820161168c565b8481528381019087850183890186018a101561116257600080fd5b60009350835b8781101561119f5781358681111561117e578586fd5b61118c8c89838e01016111ae565b8552509286019290860190600101611168565b50909998505050505050505050565b600082601f8301126111bf57600080fd5b813567ffffffffffffffff8111156111d9576111d9611721565b6111ec601f8201601f191660200161168c565b81815284602083860101111561120157600080fd5b816020850160208301376000918101602001919091529392505050565b60006020828403121561123057600080fd5b81356001600160a01b038116811461124757600080fd5b9392505050565b60008060008060008060008060008060006101608c8e03121561127057600080fd5b67ffffffffffffffff808d35111561128757600080fd5b6112948e8e358f016111ae565b9b508060208e013511156112a757600080fd5b6112b78e60208f01358f016111ae565b9a508060408e013511156112ca57600080fd5b6112da8e60408f01358f016111ae565b99508060608e013511156112ed57600080fd5b6112fd8e60608f01358f016111ae565b98508060808e0135111561131057600080fd5b6113208e60808f01358f016111ae565b97508060a08e0135111561133357600080fd5b6113438e60a08f01358f016111ae565b96508060c08e0135111561135657600080fd5b6113668e60c08f01358f016111ae565b95508060e08e0135111561137957600080fd5b6113898e60e08f01358f0161110a565b9450806101008e0135111561139d57600080fd5b6113ae8e6101008f01358f016111ae565b9350806101208e013511156113c257600080fd5b6113d38e6101208f01358f016111ae565b9250806101408e013511156113e757600080fd5b506113f98d6101408e01358e016111ae565b90509295989b509295989b9093969950565b600081518084526020808501808196508360051b8101915082860160005b85811015611453578284038952611441848351611460565b98850198935090840190600101611429565b5091979650505050505050565b6000815180845260005b818110156114865760208185018101518683018201520161146a565b81811115611498576000602083870101525b50601f01601f19169290920160200192915050565b6020815260006112476020830184611460565b60006101608083526114d48184018f611460565b905082810360208401526114e8818e611460565b905082810360408401526114fc818d611460565b90508281036060840152611510818c611460565b90508281036080840152611524818b611460565b905082810360a0840152611538818a611460565b905082810360c084015261154c8189611460565b905082810360e0840152611560818861140b565b90508281036101008401526115758187611460565b905082810361012084015261158a8186611460565b905082810361014084015261159f8185611460565b9e9d5050505050505050505050505050565b60006101408083526115c58184018e611460565b905082810360208401526115d9818d611460565b905082810360408401526115ed818c611460565b90508281036060840152611601818b611460565b90508281036080840152611615818a611460565b905082810360a08401526116298189611460565b905082810360c084015261163d8188611460565b905082810360e08401526116518187611460565b90508281036101008401526116668186611460565b905082810361012084015261167b8185611460565b9d9c50505050505050505050505050565b604051601f8201601f1916810167ffffffffffffffff811182821017156116b5576116b5611721565b604052919050565b600181811c908216806116d157607f821691505b602082108114156116f257634e487b7160e01b600052602260045260246000fd5b50919050565b600060001982141561171a57634e487b7160e01b600052601160045260246000fd5b5060010190565b634e487b7160e01b600052604160045260246000fdfea2646970667358221220586664b6ffbb0bf39bbf533377a500988d27306cf7a22eeac7581949ed7682df64736f6c63430008070033",
  "immutableReferences": {},
  "source": "// SPDX-License-Identifier: MIT\r\npragma solidity ^0.8.0;\r\n\r\ncontract AddPatientRecord {\r\n    struct Record {\r\n        string fullName;\r\n        string dateOfBirth;\r\n        string hometown;\r\n        string occupation;\r\n        string cccd;\r\n        string healthInsuranceNumber;\r\n        string admissionDateTime;\r\n        string[] mriOrXrayCIDs; // S dng mng string\r\n        string diagnosis;\r\n        string medicalHistory;\r\n        string conclusion;\r\n    }\r\n\r\n    // a ch ca ngi thm h s => H s bnh n\r\n    mapping(address => Record) public records;\r\n\r\n    // S lng h s  thm\r\n    uint256 public recordCount = 0;\r\n\r\n    // S kin khi thm h s mi\r\n    event RecordAdded(uint256 indexed recordId, string fullName);\r\n\r\n    function addRecord(\r\n        string memory _fullName,\r\n        string memory _dateOfBirth,\r\n        string memory _hometown,\r\n        string memory _occupation,\r\n        string memory _cccd,\r\n        string memory _healthInsuranceNumber,\r\n        string memory _admissionDateTime,\r\n        string[] memory _mriOrXrayCIDs, // Thay i tham s thnh mng\r\n        string memory _diagnosis,\r\n        string memory _medicalHistory,\r\n        string memory _conclusion\r\n    ) public {\r\n        records[msg.sender] = Record({\r\n            fullName: _fullName,\r\n            dateOfBirth: _dateOfBirth,\r\n            hometown: _hometown,\r\n            occupation: _occupation,\r\n            cccd: _cccd,\r\n            healthInsuranceNumber: _healthInsuranceNumber,\r\n            admissionDateTime: _admissionDateTime,\r\n            mriOrXrayCIDs: _mriOrXrayCIDs,\r\n            diagnosis: _diagnosis,\r\n            medicalHistory: _medicalHistory,\r\n            conclusion: _conclusion\r\n        });\r\n\r\n        emit RecordAdded(recordCount, _fullName);\r\n        recordCount++;\r\n    }\r\n\r\n    // Ly thng tin h s bnh n theo a ch\r\n    function getRecord(\r\n        address _recordOwner\r\n    )\r\n        public\r\n        view\r\n        returns (\r\n            string memory fullName,\r\n            string memory dateOfBirth,\r\n            string memory hometown,\r\n            string memory occupation,\r\n            string memory cccd, // Tr v s CCCD\r\n            string memory healthInsuranceNumber, // Tr v s bo him y t\r\n            string memory admissionDateTime, // Tr v ngy gi vo vin\r\n            string[] memory mriOrXrayCIDs, // Tr v danh sch CID\r\n            string memory diagnosis,\r\n            string memory medicalHistory,\r\n            string memory conclusion // Tr v kt lun\r\n        )\r\n    {\r\n        Record memory record = records[_recordOwner];\r\n        return (\r\n            record.fullName,\r\n            record.dateOfBirth,\r\n            record.hometown,\r\n            record.occupation,\r\n            record.cccd, // Tr v s CCCD\r\n            record.healthInsuranceNumber, // Tr v s bo him y t\r\n            record.admissionDateTime, // Tr v ngy gi vo vin\r\n            record.mriOrXrayCIDs, // Tr v danh sch CID\r\n            record.diagnosis,\r\n            record.medicalHistory,\r\n            record.conclusion // Tr v kt lun\r\n        );\r\n    }\r\n\r\n    // Ly s lng h s bnh n\r\n    function getRecordCount() public view returns (uint256) {\r\n        return recordCount;\r\n    }\r\n}\r\n",
  "sourcePath": "C:\\Users\\nhokk\\LV\\hsba\\contracts\\addPatientRecord.sol",
  "compiler": {
    "name": "solc",
    "version": "0.8.7+commit.e28d00a7.Emscripten.clang"
  },
  "schemaVersion": "3.4.16",
  "updatedAt": "2024-09-14T15:15:50.307Z",
  "devdoc": {
    "kind": "dev",
    "methods": {},
    "version": 1
  },
  "userdoc": {
    "kind": "user",
    "methods": {},
    "version": 1
  }
}