{
  "contractName": "Doctor",
  "abi": [
    {
      "anonymous": false,
      "inputs": [
        {
          "indexed": false,
          "internalType": "string",
          "name": "username",
          "type": "string"
        },
        {
          "indexed": false,
          "internalType": "string",
          "name": "fullName",
          "type": "string"
        },
        {
          "indexed": false,
          "internalType": "string",
          "name": "dateOfBirth",
          "type": "string"
        },
        {
          "indexed": false,
          "internalType": "string",
          "name": "contactAddress",
          "type": "string"
        },
        {
          "indexed": false,
          "internalType": "string",
          "name": "phoneNumber",
          "type": "string"
        },
        {
          "indexed": false,
          "internalType": "string",
          "name": "email",
          "type": "string"
        },
        {
          "indexed": false,
          "internalType": "string",
          "name": "specialization",
          "type": "string"
        },
        {
          "indexed": false,
          "internalType": "string",
          "name": "qualifications",
          "type": "string"
        },
        {
          "indexed": false,
          "internalType": "string",
          "name": "workExperience",
          "type": "string"
        },
        {
          "indexed": false,
          "internalType": "string",
          "name": "profilePictureCID",
          "type": "string"
        },
        {
          "indexed": false,
          "internalType": "string",
          "name": "introduction",
          "type": "string"
        }
      ],
      "name": "DoctorProfileUpdated",
      "type": "event"
    },
    {
      "anonymous": false,
      "inputs": [
        {
          "indexed": false,
          "internalType": "string",
          "name": "username",
          "type": "string"
        },
        {
          "indexed": false,
          "internalType": "string",
          "name": "fullName",
          "type": "string"
        }
      ],
      "name": "DoctorRegistered",
      "type": "event"
    },
    {
      "anonymous": false,
      "inputs": [
        {
          "indexed": false,
          "internalType": "string",
          "name": "username",
          "type": "string"
        },
        {
          "indexed": false,
          "internalType": "string",
          "name": "fullName",
          "type": "string"
        }
      ],
      "name": "DoctorUpdated",
      "type": "event"
    },
    {
      "inputs": [
        {
          "internalType": "string",
          "name": "_fullName",
          "type": "string"
        },
        {
          "internalType": "string",
          "name": "_username",
          "type": "string"
        },
        {
          "internalType": "string",
          "name": "_password",
          "type": "string"
        }
      ],
      "name": "registerDoctor",
      "outputs": [],
      "stateMutability": "nonpayable",
      "type": "function"
    },
    {
      "inputs": [
        {
          "internalType": "string",
          "name": "_fullName",
          "type": "string"
        },
        {
          "internalType": "string",
          "name": "_username",
          "type": "string"
        },
        {
          "internalType": "string",
          "name": "_password",
          "type": "string"
        },
        {
          "internalType": "string",
          "name": "_dateOfBirth",
          "type": "string"
        },
        {
          "internalType": "string",
          "name": "_contactAddress",
          "type": "string"
        },
        {
          "internalType": "string",
          "name": "_phoneNumber",
          "type": "string"
        },
        {
          "internalType": "string",
          "name": "_email",
          "type": "string"
        },
        {
          "internalType": "string",
          "name": "_specialization",
          "type": "string"
        },
        {
          "internalType": "string",
          "name": "_qualifications",
          "type": "string"
        },
        {
          "internalType": "string",
          "name": "_workExperience",
          "type": "string"
        },
        {
          "internalType": "string",
          "name": "_profilePictureCID",
          "type": "string"
        },
        {
          "internalType": "string",
          "name": "_introduction",
          "type": "string"
        }
      ],
      "name": "updateDoctor",
      "outputs": [],
      "stateMutability": "nonpayable",
      "type": "function"
    },
    {
      "inputs": [
        {
          "internalType": "string",
          "name": "_username",
          "type": "string"
        },
        {
          "internalType": "string",
          "name": "_password",
          "type": "string"
        }
      ],
      "name": "verifyPassword",
      "outputs": [
        {
          "internalType": "bool",
          "name": "",
          "type": "bool"
        }
      ],
      "stateMutability": "view",
      "type": "function"
    },
    {
      "inputs": [
        {
          "internalType": "string",
          "name": "_username",
          "type": "string"
        }
      ],
      "name": "isUserTaken",
      "outputs": [
        {
          "internalType": "bool",
          "name": "",
          "type": "bool"
        }
      ],
      "stateMutability": "view",
      "type": "function"
    },
    {
      "inputs": [
        {
          "internalType": "string",
          "name": "_username",
          "type": "string"
        }
      ],
      "name": "getDoctorInfo",
      "outputs": [
        {
          "internalType": "string",
          "name": "fullName",
          "type": "string"
        },
        {
          "internalType": "string",
          "name": "username",
          "type": "string"
        },
        {
          "internalType": "bytes32",
          "name": "passwordHash",
          "type": "bytes32"
        },
        {
          "internalType": "string",
          "name": "dateOfBirth",
          "type": "string"
        },
        {
          "internalType": "string",
          "name": "contactAddress",
          "type": "string"
        },
        {
          "internalType": "string",
          "name": "phoneNumber",
          "type": "string"
        },
        {
          "internalType": "string",
          "name": "email",
          "type": "string"
        },
        {
          "internalType": "string",
          "name": "specialization",
          "type": "string"
        },
        {
          "internalType": "string",
          "name": "qualifications",
          "type": "string"
        },
        {
          "internalType": "string",
          "name": "workExperience",
          "type": "string"
        },
        {
          "internalType": "string",
          "name": "profilePictureCID",
          "type": "string"
        },
        {
          "internalType": "string",
          "name": "introduction",
          "type": "string"
        }
      ],
      "stateMutability": "view",
      "type": "function"
    }
  ],
  "bytecode": "0x608060405234801561001057600080fd5b50611c1b806100206000396000f3fe608060405234801561001057600080fd5b50600436106100575760003560e01c80632fe6269f1461005c57806350c7a9121461008457806363ac52661461009957806371a00f06146100ac578063d0e2fd20146100bf575b600080fd5b61006f61006a3660046115bf565b6100ea565b60405190151581526020015b60405180910390f35b610097610092366004611622565b6107c8565b005b6100976100a73660046116a9565b610aba565b61006f6100ba366004611583565b610ccc565b6100d26100cd366004611583565b610cf7565b60405161007b9c9b9a9998979695949392919061194c565b60006001836040516100fc9190611902565b9081526040519081900360200190205460ff166101345760405162461bcd60e51b815260040161012b90611b35565b60405180910390fd5b600080846040516101459190611902565b90815260200160405180910390206040518061018001604052908160008201805461016f90611b94565b80601f016020809104026020016040519081016040528092919081815260200182805461019b90611b94565b80156101e85780601f106101bd576101008083540402835291602001916101e8565b820191906000526020600020905b8154815290600101906020018083116101cb57829003601f168201915b5050505050815260200160018201805461020190611b94565b80601f016020809104026020016040519081016040528092919081815260200182805461022d90611b94565b801561027a5780601f1061024f5761010080835404028352916020019161027a565b820191906000526020600020905b81548152906001019060200180831161025d57829003601f168201915b505050505081526020016002820154815260200160038201805461029d90611b94565b80601f01602080910402602001604051908101604052809291908181526020018280546102c990611b94565b80156103165780601f106102eb57610100808354040283529160200191610316565b820191906000526020600020905b8154815290600101906020018083116102f957829003601f168201915b5050505050815260200160048201805461032f90611b94565b80601f016020809104026020016040519081016040528092919081815260200182805461035b90611b94565b80156103a85780601f1061037d576101008083540402835291602001916103a8565b820191906000526020600020905b81548152906001019060200180831161038b57829003601f168201915b505050505081526020016005820180546103c190611b94565b80601f01602080910402602001604051908101604052809291908181526020018280546103ed90611b94565b801561043a5780601f1061040f5761010080835404028352916020019161043a565b820191906000526020600020905b81548152906001019060200180831161041d57829003601f168201915b5050505050815260200160068201805461045390611b94565b80601f016020809104026020016040519081016040528092919081815260200182805461047f90611b94565b80156104cc5780601f106104a1576101008083540402835291602001916104cc565b820191906000526020600020905b8154815290600101906020018083116104af57829003601f168201915b505050505081526020016007820180546104e590611b94565b80601f016020809104026020016040519081016040528092919081815260200182805461051190611b94565b801561055e5780601f106105335761010080835404028352916020019161055e565b820191906000526020600020905b81548152906001019060200180831161054157829003601f168201915b5050505050815260200160088201805461057790611b94565b80601f01602080910402602001604051908101604052809291908181526020018280546105a390611b94565b80156105f05780601f106105c5576101008083540402835291602001916105f0565b820191906000526020600020905b8154815290600101906020018083116105d357829003601f168201915b5050505050815260200160098201805461060990611b94565b80601f016020809104026020016040519081016040528092919081815260200182805461063590611b94565b80156106825780601f1061065757610100808354040283529160200191610682565b820191906000526020600020905b81548152906001019060200180831161066557829003601f168201915b50505050508152602001600a8201805461069b90611b94565b80601f01602080910402602001604051908101604052809291908181526020018280546106c790611b94565b80156107145780601f106106e957610100808354040283529160200191610714565b820191906000526020600020905b8154815290600101906020018083116106f757829003601f168201915b50505050508152602001600b8201805461072d90611b94565b80601f016020809104026020016040519081016040528092919081815260200182805461075990611b94565b80156107a65780601f1061077b576101008083540402835291602001916107a6565b820191906000526020600020905b81548152906001019060200180831161078957829003601f168201915b50505050508152505090506107ba8361142e565b604090910151149392505050565b6001826040516107d89190611902565b9081526040519081900360200190205460ff16156108385760405162461bcd60e51b815260206004820152601960248201527f557365726e616d6520697320616c72656164792074616b656e00000000000000604482015260640161012b565b6040518061018001604052808481526020018381526020016108598361142e565b8152604080516020818101835260008083528185019290925282518082018452828152838501528251808201845282815260608501528251808201845282815260808501528251808201845282815260a08501528251808201845282815260c08501528251808201845282815260e0850152825180820184528281526101008501528251908101835281815261012090930192909252516108fb908590611902565b9081526020016040518091039020600082015181600001908051906020019061092592919061145e565b50602082810151805161093e926001850192019061145e565b50604082015160028201556060820151805161096491600384019160209091019061145e565b506080820151805161098091600484019160209091019061145e565b5060a0820151805161099c91600584019160209091019061145e565b5060c082015180516109b891600684019160209091019061145e565b5060e082015180516109d491600784019160209091019061145e565b5061010082015180516109f191600884019160209091019061145e565b506101208201518051610a0e91600984019160209091019061145e565b506101408201518051610a2b91600a84019160209091019061145e565b506101608201518051610a4891600b84019160209091019061145e565b5090505060018083604051610a5d9190611902565b908152604051908190036020018120805492151560ff19909316929092179091557fcd699b2b5581050eaf5ec3b85c200f9b500741fb22238e0234ccd63b398a8e8b90610aad908490869061191e565b60405180910390a1505050565b60018b604051610aca9190611902565b9081526040519081900360200190205460ff16610af95760405162461bcd60e51b815260040161012b90611b35565b6000808c604051610b0a9190611902565b908152602001604051809103902090508c816000019080519060200190610b3292919061145e565b508951610b4890600383019060208d019061145e565b508851610b5e90600483019060208c019061145e565b508751610b7490600583019060208b019061145e565b508651610b8a90600683019060208a019061145e565b508551610ba0906007830190602089019061145e565b508451610bb6906008830190602088019061145e565b508351610bcc906009830190602087019061145e565b508251610be290600a830190602086019061145e565b508151610bf890600b830190602085019061145e565b5080600201548b604051602001610c0f9190611902565b6040516020818303038152906040528051906020012014610c3957610c338b61142e565b60028201555b7ff3af4b15c234676b5453198ccef52f6080744e633d2c73404fa2c249794abfea8c8e604051610c6a92919061191e565b60405180910390a17fa332ffc8053180ee69bf9f0aec0c6889b4487525dca92e4aabf9e1e36207270f8c8e8c8c8c8c8c8c8c8c8c604051610cb59b9a99989796959493929190611a44565b60405180910390a150505050505050505050505050565b6000600182604051610cde9190611902565b9081526040519081900360200190205460ff1692915050565b6060806000606080606080606080606080606060018d604051610d1a9190611902565b9081526040519081900360200190205460ff16610d495760405162461bcd60e51b815260040161012b90611b35565b6000808e604051610d5a9190611902565b908152602001604051809103902060405180610180016040529081600082018054610d8490611b94565b80601f0160208091040260200160405190810160405280929190818152602001828054610db090611b94565b8015610dfd5780601f10610dd257610100808354040283529160200191610dfd565b820191906000526020600020905b815481529060010190602001808311610de057829003601f168201915b50505050508152602001600182018054610e1690611b94565b80601f0160208091040260200160405190810160405280929190818152602001828054610e4290611b94565b8015610e8f5780601f10610e6457610100808354040283529160200191610e8f565b820191906000526020600020905b815481529060010190602001808311610e7257829003601f168201915b5050505050815260200160028201548152602001600382018054610eb290611b94565b80601f0160208091040260200160405190810160405280929190818152602001828054610ede90611b94565b8015610f2b5780601f10610f0057610100808354040283529160200191610f2b565b820191906000526020600020905b815481529060010190602001808311610f0e57829003601f168201915b50505050508152602001600482018054610f4490611b94565b80601f0160208091040260200160405190810160405280929190818152602001828054610f7090611b94565b8015610fbd5780601f10610f9257610100808354040283529160200191610fbd565b820191906000526020600020905b815481529060010190602001808311610fa057829003601f168201915b50505050508152602001600582018054610fd690611b94565b80601f016020809104026020016040519081016040528092919081815260200182805461100290611b94565b801561104f5780601f106110245761010080835404028352916020019161104f565b820191906000526020600020905b81548152906001019060200180831161103257829003601f168201915b5050505050815260200160068201805461106890611b94565b80601f016020809104026020016040519081016040528092919081815260200182805461109490611b94565b80156110e15780601f106110b6576101008083540402835291602001916110e1565b820191906000526020600020905b8154815290600101906020018083116110c457829003601f168201915b505050505081526020016007820180546110fa90611b94565b80601f016020809104026020016040519081016040528092919081815260200182805461112690611b94565b80156111735780601f1061114857610100808354040283529160200191611173565b820191906000526020600020905b81548152906001019060200180831161115657829003601f168201915b5050505050815260200160088201805461118c90611b94565b80601f01602080910402602001604051908101604052809291908181526020018280546111b890611b94565b80156112055780601f106111da57610100808354040283529160200191611205565b820191906000526020600020905b8154815290600101906020018083116111e857829003601f168201915b5050505050815260200160098201805461121e90611b94565b80601f016020809104026020016040519081016040528092919081815260200182805461124a90611b94565b80156112975780601f1061126c57610100808354040283529160200191611297565b820191906000526020600020905b81548152906001019060200180831161127a57829003601f168201915b50505050508152602001600a820180546112b090611b94565b80601f01602080910402602001604051908101604052809291908181526020018280546112dc90611b94565b80156113295780601f106112fe57610100808354040283529160200191611329565b820191906000526020600020905b81548152906001019060200180831161130c57829003601f168201915b50505050508152602001600b8201805461134290611b94565b80601f016020809104026020016040519081016040528092919081815260200182805461136e90611b94565b80156113bb5780601f10611390576101008083540402835291602001916113bb565b820191906000526020600020905b81548152906001019060200180831161139e57829003601f168201915b5050505050815250509050806000015181602001518260400151836060015184608001518560a001518660c001518760e001518861010001518961012001518a61014001518b61016001519c509c509c509c509c509c509c509c509c509c509c509c505091939597999b5091939597999b565b6000816040516020016114419190611902565b604051602081830303815290604052805190602001209050919050565b82805461146a90611b94565b90600052602060002090601f01602090048101928261148c57600085556114d2565b82601f106114a557805160ff19168380011785556114d2565b828001600101855582156114d2579182015b828111156114d25782518255916020019190600101906114b7565b506114de9291506114e2565b5090565b5b808211156114de57600081556001016114e3565b600082601f83011261150857600080fd5b81356001600160401b038082111561152257611522611bcf565b604051601f8301601f19908116603f0116810190828211818310171561154a5761154a611bcf565b8160405283815286602085880101111561156357600080fd5b836020870160208301376000602085830101528094505050505092915050565b60006020828403121561159557600080fd5b81356001600160401b038111156115ab57600080fd5b6115b7848285016114f7565b949350505050565b600080604083850312156115d257600080fd5b82356001600160401b03808211156115e957600080fd5b6115f5868387016114f7565b9350602085013591508082111561160b57600080fd5b50611618858286016114f7565b9150509250929050565b60008060006060848603121561163757600080fd5b83356001600160401b038082111561164e57600080fd5b61165a878388016114f7565b9450602086013591508082111561167057600080fd5b61167c878388016114f7565b9350604086013591508082111561169257600080fd5b5061169f868287016114f7565b9150509250925092565b6000806000806000806000806000806000806101808d8f0312156116cc57600080fd5b6001600160401b038d3511156116e157600080fd5b6116ee8e8e358f016114f7565b9b506001600160401b0360208e0135111561170857600080fd5b6117188e60208f01358f016114f7565b9a506001600160401b0360408e0135111561173257600080fd5b6117428e60408f01358f016114f7565b99506001600160401b0360608e0135111561175c57600080fd5b61176c8e60608f01358f016114f7565b98506001600160401b0360808e0135111561178657600080fd5b6117968e60808f01358f016114f7565b97506001600160401b0360a08e013511156117b057600080fd5b6117c08e60a08f01358f016114f7565b96506001600160401b0360c08e013511156117da57600080fd5b6117ea8e60c08f01358f016114f7565b95506001600160401b0360e08e0135111561180457600080fd5b6118148e60e08f01358f016114f7565b94506001600160401b036101008e0135111561182f57600080fd5b6118408e6101008f01358f016114f7565b93506001600160401b036101208e0135111561185b57600080fd5b61186c8e6101208f01358f016114f7565b92506001600160401b036101408e0135111561188757600080fd5b6118988e6101408f01358f016114f7565b91506001600160401b036101608e013511156118b357600080fd5b6118c48e6101608f01358f016114f7565b90509295989b509295989b509295989b565b600081518084526118ee816020860160208601611b64565b601f01601f19169290920160200192915050565b60008251611914818460208701611b64565b9190910192915050565b60408152600061193160408301856118d6565b828103602084015261194381856118d6565b95945050505050565b6101808152600061196161018083018f6118d6565b8281036020840152611973818f6118d6565b90508c6040840152828103606084015261198d818d6118d6565b905082810360808401526119a1818c6118d6565b905082810360a08401526119b5818b6118d6565b905082810360c08401526119c9818a6118d6565b905082810360e08401526119dd81896118d6565b90508281036101008401526119f281886118d6565b9050828103610120840152611a0781876118d6565b9050828103610140840152611a1c81866118d6565b9050828103610160840152611a3181856118d6565b9f9e505050505050505050505050505050565b6000610160808352611a588184018f6118d6565b90508281036020840152611a6c818e6118d6565b90508281036040840152611a80818d6118d6565b90508281036060840152611a94818c6118d6565b90508281036080840152611aa8818b6118d6565b905082810360a0840152611abc818a6118d6565b905082810360c0840152611ad081896118d6565b905082810360e0840152611ae481886118d6565b9050828103610100840152611af981876118d6565b9050828103610120840152611b0e81866118d6565b9050828103610140840152611b2381856118d6565b9e9d5050505050505050505050505050565b602080825260159082015274111bd8dd1bdc88191bd95cc81b9bdd08195e1a5cdd605a1b604082015260600190565b60005b83811015611b7f578181015183820152602001611b67565b83811115611b8e576000848401525b50505050565b600181811c90821680611ba857607f821691505b60208210811415611bc957634e487b7160e01b600052602260045260246000fd5b50919050565b634e487b7160e01b600052604160045260246000fdfea2646970667358221220a45bfe01cdec4bfc4254a5d018c8ff4b3f85ffe0fcccd1c0eba6a4291abbc68a64736f6c63430008070033",
  "immutableReferences": {},
  "source": "// SPDX-License-Identifier: MIT\r\npragma solidity ^0.8.0;\r\n\r\ncontract Doctor {\r\n    struct DoctorProfile {\r\n        string fullName;\r\n        string username;\r\n        bytes32 passwordHash; // S dng bytes32  lu mt khu  m ha\r\n        string dateOfBirth;\r\n        string contactAddress;\r\n        string phoneNumber;\r\n        string email;\r\n        string specialization;\r\n        string qualifications;\r\n        string workExperience;\r\n        string profilePictureCID; // Lu CID ca nh i din\r\n        string introduction;\r\n    }\r\n\r\n    mapping(string => DoctorProfile) private doctors;\r\n    mapping(string => bool) private usernameExists;\r\n\r\n    event DoctorRegistered(string username, string fullName);\r\n    event DoctorUpdated(string username, string fullName);\r\n    event DoctorProfileUpdated(\r\n        string username,\r\n        string fullName,\r\n        string dateOfBirth,\r\n        string contactAddress,\r\n        string phoneNumber,\r\n        string email,\r\n        string specialization,\r\n        string qualifications,\r\n        string workExperience,\r\n        string profilePictureCID,\r\n        string introduction\r\n    );\r\n\r\n    // Hm h tr m ha mt khu\r\n    function hashPassword(\r\n        string memory _password\r\n    ) private pure returns (bytes32) {\r\n        return keccak256(abi.encodePacked(_password));\r\n    }\r\n\r\n    // ng k bc s mi vi mt khu  m ha\r\n    function registerDoctor(\r\n        string memory _fullName,\r\n        string memory _username,\r\n        string memory _password\r\n    ) public {\r\n        require(!usernameExists[_username], \"Username is already taken\");\r\n\r\n        doctors[_username] = DoctorProfile({\r\n            fullName: _fullName,\r\n            username: _username,\r\n            passwordHash: hashPassword(_password), // Lu mt khu  m ha\r\n            dateOfBirth: \"\",\r\n            contactAddress: \"\",\r\n            phoneNumber: \"\",\r\n            email: \"\",\r\n            specialization: \"\",\r\n            qualifications: \"\",\r\n            workExperience: \"\",\r\n            profilePictureCID: \"\",\r\n            introduction: \"\"\r\n        });\r\n\r\n        usernameExists[_username] = true;\r\n\r\n        emit DoctorRegistered(_username, _fullName);\r\n    }\r\n\r\n    // Cp nht thng tin bc s v mt khu m ha\r\n    // Cp nht thng tin bc s v mt khu m ha (nu mt khu thay i)\r\n    function updateDoctor(\r\n        string memory _fullName,\r\n        string memory _username,\r\n        string memory _password, // Mt khu c th thay i hoc gi nguyn\r\n        string memory _dateOfBirth,\r\n        string memory _contactAddress,\r\n        string memory _phoneNumber,\r\n        string memory _email,\r\n        string memory _specialization,\r\n        string memory _qualifications,\r\n        string memory _workExperience,\r\n        string memory _profilePictureCID,\r\n        string memory _introduction\r\n    ) public {\r\n        require(usernameExists[_username], \"Doctor does not exist\");\r\n\r\n        // Ly thng tin bc s hin ti\r\n        DoctorProfile storage doctor = doctors[_username];\r\n\r\n        // Cp nht thng tin khc\r\n        doctor.fullName = _fullName;\r\n        doctor.dateOfBirth = _dateOfBirth;\r\n        doctor.contactAddress = _contactAddress;\r\n        doctor.phoneNumber = _phoneNumber;\r\n        doctor.email = _email;\r\n        doctor.specialization = _specialization;\r\n        doctor.qualifications = _qualifications;\r\n        doctor.workExperience = _workExperience;\r\n        doctor.profilePictureCID = _profilePictureCID;\r\n        doctor.introduction = _introduction;\r\n\r\n        // Kim tra nu mt khu c thay i\r\n        if (keccak256(abi.encodePacked(_password)) != doctor.passwordHash) {\r\n            doctor.passwordHash = hashPassword(_password); // Cp nht mt khu mi nu c thay i\r\n        }\r\n\r\n        // Pht s kin cp nht h s\r\n        emit DoctorUpdated(_username, _fullName);\r\n        emit DoctorProfileUpdated(\r\n            _username,\r\n            _fullName,\r\n            _dateOfBirth,\r\n            _contactAddress,\r\n            _phoneNumber,\r\n            _email,\r\n            _specialization,\r\n            _qualifications,\r\n            _workExperience,\r\n            _profilePictureCID,\r\n            _introduction\r\n        );\r\n    }\r\n\r\n    // Hm kim tra mt khu\r\n    // Hm kim tra mt khu\r\n    function verifyPassword(\r\n        string memory _username,\r\n        string memory _password\r\n    ) public view returns (bool) {\r\n        require(usernameExists[_username], \"Doctor does not exist\");\r\n\r\n        DoctorProfile memory doctor = doctors[_username];\r\n\r\n        // So snh mt khu  bm\r\n        return doctor.passwordHash == hashPassword(_password);\r\n    }\r\n\r\n    // Kim tra tn ngi dng  c s dng cha\r\n    function isUserTaken(string memory _username) public view returns (bool) {\r\n        return usernameExists[_username];\r\n    }\r\n\r\n    // Hm  ly thng tin bc s\r\n    function getDoctorInfo(\r\n        string memory _username\r\n    )\r\n        public\r\n        view\r\n        returns (\r\n            string memory fullName,\r\n            string memory username,\r\n            bytes32 passwordHash,\r\n            string memory dateOfBirth,\r\n            string memory contactAddress,\r\n            string memory phoneNumber,\r\n            string memory email,\r\n            string memory specialization,\r\n            string memory qualifications,\r\n            string memory workExperience,\r\n            string memory profilePictureCID,\r\n            string memory introduction\r\n        )\r\n    {\r\n        require(usernameExists[_username], \"Doctor does not exist\");\r\n\r\n        DoctorProfile memory doctor = doctors[_username];\r\n        return (\r\n            doctor.fullName,\r\n            doctor.username,\r\n            doctor.passwordHash,\r\n            doctor.dateOfBirth,\r\n            doctor.contactAddress,\r\n            doctor.phoneNumber,\r\n            doctor.email,\r\n            doctor.specialization,\r\n            doctor.qualifications,\r\n            doctor.workExperience,\r\n            doctor.profilePictureCID,\r\n            doctor.introduction\r\n        );\r\n    }\r\n}\r\n",
  "sourcePath": "C:\\Users\\nhokk\\LV\\hsba\\contracts\\Doctor.sol",
  "compiler": {
    "name": "solc",
    "version": "0.8.7+commit.e28d00a7.Emscripten.clang"
  },
  "schemaVersion": "3.4.16",
  "updatedAt": "2024-09-14T15:15:50.291Z",
  "devdoc": {
    "kind": "dev",
    "methods": {},
    "version": 1
  },
  "userdoc": {
    "kind": "user",
    "methods": {},
    "version": 1
  }
}